:020000040800F2
:10000000E006002035020008BF1F00083113000879
:10001000BD1F00082B040008652200080000000036
:10002000000000000000000000000000BB210008EC
:100030002D04000800000000B9210008BD210008BF
:100040004F0200084F0200084F0200084F0200084C
:100050004F0200084F0200084F0200084F0200083C
:100060004F0200084F0200084F0200084F0200082C
:100070004F0200084F0200084F0200084F0200081C
:100080004F0200084F0200084F0200080000000065
:100090000000000000000000000000004F02000807
:1000A0004F0200084F0200084F0200084F020008EC
:1000B0004F0200084F0200084F02000841130008D9
:1000C000351300084F0200084F0200084F020008D5
:1000D0004F0200084F0200084F0200080000000015
:1000E0004F0200084F0200084F0200080000000005
:1000F0000000000000000000000000004F020008A7
:10010000000000004F0200084F0200084F020008E4
:1001100000000000000000000000000000000000DF
:100120004F0200084F0200084F0200084F0200086B
:100130004F02000800000000000000000000000066
:100140000000000000000000000000004F02000856
:100150004F0200084F0200084F0200084F0200083B
:100160004F0200084F0200080000000000000000DD
:10017000000000000000000000000000000000007F
:10018000000000004F020008000000000000000016
:100190004F02000800F002F800F03CF80AA090E8D6
:1001A000000C82448344AAF10107DA4501D100F032
:1001B00031F8AFF2090EBAE80F0013F0010F18BFC3
:1001C000FB1A43F00103184780300000A030000004
:1001D000103A24BF78C878C1FAD8520724BF30C873
:1001E00030C144BF04680C60704700000023002445
:1001F00000250026103A28BF78C1FBD8520728BF37
:1002000030C148BF0B6070471FB502F09FF81FBD9B
:1002100010B510BD00F0CFF81146FFF7F5FF02F062
:100220004DF800F0EDF803B4FFF7F2FF03BC00F067
:10023000F5F800000948804709480047FEE7FEE757
:10024000FEE7FEE7FEE7FEE7FEE7FEE7FEE7FEE786
:1002500004480549054A064B70470000552200082E
:1002600095010008E0000020E0060020E0020020E8
:10027000E002002053EA020C00F069802DE9F04B07
:100280004FF00006002B1FBFB3FA83F503FA05F405
:1002900024FA05F65E4012BF1643B2FA82F502FA5E
:1002A00005F4C5F120051EBF22FA05FC44EA0C0442
:1002B000203556EA044C4FEA144418BF641C4FF032
:1002C00000084FF00009904271EB030C39D300296C
:1002D00019BFB1FA81F701FA07F6B0FA80F700FA10
:1002E00007F6C7F120071EBF20FA07FC46EA0C06F6
:1002F0002037B6FBF4FCA7EB0507103F07F01F0BF8
:10030000CBF120060CFA0BFB2CFA06F644BFB346E1
:100310000026202FA4BF5E464FF0000B5BEA060CC0
:1003200008BF4FF0010B19EB0B09ABFB027C48EB4C
:100330000608C01B06FB02CC0BFB03CC71EB0C01C7
:10034000C1E70B46024641464846BDE8F08B13B56F
:100350004FF000004FF00001AFF30080BDE81C40FB
:1003600070474FF0000200B5134694469646203978
:1003700022BFA0E80C50A0E80C50B1F12001BFF45E
:10038000F7AF090728BFA0E80C5048BF0CC05DF8C4
:1003900004EB890028BF40F8042B08BF704748BF12
:1003A00020F8022B11F0804F18BF00F8012B704786
:1003B000704770477047754600F02CF8AE46050050
:1003C0006946534620F00700854618B020B5FFF770
:1003D0003FFFBDE820404FF000064FF000074FF010
:1003E00000084FF0000B21F00701AC46ACE8C00953
:1003F000ACE8C009ACE8C009ACE8C0098D4670475C
:1004000010B50446AFF300802046BDE81040FFF76A
:100410000ABF0000004870478000002001491820F2
:10042000ABBEFEE7260002007047FEE7704772B6DB
:10043000FEE790F83510022903D0802141650120A4
:100440007047052180F835100068016821F001012E
:1004500001600020704790F83500704770B5044681
:1004600000F0FEF80546601C02D004480078044401
:1004700000F0F6F8401BA042FAD370BD1C0000202B
:100480002DE9F84FDFF8B8A1002201240AF1040B8E
:1004900003254FF00F090BF1040E00BF0B6804FA9F
:1004A00002F63340B34273D10F7907F00307012FEF
:1004B00001D0022F16D187684FEA420805FA08FCDE
:1004C00027EA0C07D1F80CC00CFA08FC4CEA070C20
:1004D000C0F808C04768B7430E79C6F300169640C7
:1004E0003E4346600E79F643B6070DD0C768560006
:1004F00005FA06FC27EA0C07D1F808C00CFA06FC3E
:100500004CEA070CC0F80CC00E7906F00306022E68
:1005100010D1D60800EB8608D8F8206057074FEABC
:10052000D76C09FA0CF7BE430F6907FA0CF737438B
:10053000C8F8207006684FEA420C05FA0CF7BE4373
:100540000F7907F0030707FA0CF7374307604E6887
:1005500016F4403F6DD03B4E376847F48047376014
:10056000366822F0030706F480460096364E07EB05
:10057000060CDCF8086897073F0F09FA07F826EA27
:100580000806DFF8C880404503D14FF000081EE0A0
:100590004FE0DFF8BC80404502D14FF0010816E083
:1005A000DFF8B080404502D14FF002080FE0DFF8DD
:1005B000A880404502D14FF0030808E0DFF89C8096
:1005C000404502D14FF0040801E04FF0070808FA57
:1005D00007F848EA0608CCF80888DAF800605746B9
:1005E000D1F804C09E435FEACC3C00D51E433E6078
:1005F000DBF800605F46D1F804C09E435FEA8C3CA4
:1006000000D51E433E60DEF800607746D1F804C096
:100610009E435FEACC2C00D51E433E60084F0C374A
:100620003E68D1F804C09E435FEA8C2C00D51E437F
:100630003E60521C102AFFF431AFBDE8F88F000075
:10064000003C0140443802400030014000000240BC
:100650000004024000080240000C0240001002406A
:1006600001488068704700001C00002070477047F8
:100670002DE9F041016804464A694E6890F83E0051
:100680000025D743FA0506D4F243D20503D46FF40C
:10069000807201254A61B90508D4F143C90505D422
:1006A00022686FF4007145F002055161790525D487
:1006B000F143C90522D4638D94F83D10226B2028A4
:1006C00008D13BB9212910D029290ED0282901D1E0
:1006D000212A0AD022686FF48061516145F0040537
:1006E000102806D0402804D008E0204601F064FA23
:1006F00004E02068016841F400710160380508D405
:10070000F043C00505D421686FF4006045F008058A
:100710004861002D07D0206C284320642046BDE8A6
:10072000F04100F071BEBDE8F0812DE9F0470268AC
:1007300000215368C66A90F83E4090F83D50102C56
:1007400012D0402C10D0046C002C7DD05469E443AE
:10075000A6077AD4DE43B60577D4036C03B191695A
:10076000BDE8F04701F004BA976951694FF42A0CCB
:10077000C9435FEAC1784FF02A4904D066452AD0C0
:100780004E4528D010E0DE43B6050DD4C16A614560
:1007900001D1012103E0C16A494501D10821C162AB
:1007A000BDE8F04701F0FAB80E0716D4DE43B605EF
:1007B00013D4416CC9B21161416B09B1C96B29B93C
:1007C000816B002907D0C96B002904D000684168FB
:1007D00041F400614160BDE8F0878E0706D4DE4336
:1007E000B60503D4BDE8F04701F04CB8FE435268AB
:1007F00076074FEA02521DD4002AECDB0A0608D421
:10080000DA43520505D4490705D5BDE8F04700F0A5
:10081000DDBF4907DFD4D9438905DCD4212D05D0BC
:10082000402CD8D1BDE8F04701F0FEB8BDE8F04754
:1008300000F08ABF002ACEDB4A060BD4DA43520509
:1008400008D4490708D501E00DE00EE0BDE8F04707
:1008500000F006BF4907BED4D9438905BBD4BDE823
:10086000F04700F094BE916970E7E10606D4D943E1
:10087000890503D4BDE8F04701F0E0B92821212D16
:1008800027D0292D25D0650655D4DD436D0552D4DA
:10089000640752D590F83D30448D002C9BD01269EE
:1008A000446A2270426A521C4262428D521E428544
:1008B000428D002A8FD12A2B8DD10268536823F4F0
:1008C000806353602222026380F83D1000F0EEF94D
:1008D00081E7250623D4DD436D0520D4640720D5A8
:1008E00090F83D30448D002CF2D0446A2478146195
:1008F000426A521C4262428D521E4285428D002A3B
:10090000E6D1292BE4D10268536823F48063536055
:100910002122026380F83D1000F0C9F95BE761070E
:10092000D6D4D9438905D3D4418D0029D0D0416A8A
:10093000097811610AE06107CAD4D9438905C7D48F
:10094000418D0029C4D01169426A1170416A491C65
:100950004162418D491E41853DE7704770B50400F5
:1009600025D094F83D00002520B984F83C5020465D
:1009700000F056F9242084F83D002068016821F039
:10098000010101602068016841F4004101602068B4
:10099000016821F40041016000F0BEFA4D4A61682F
:1009A000914201D84C4900E04C49884201D20120D3
:1009B00070BD4B492368B0FBF1F15E6826F03F063D
:1009C0000E435E606368934206D94FF496735943B1
:1009D0004FF47A73B1FBF3F12368491C1E6A26F0C9
:1009E0003F06314319626168914210D84900401EA8
:1009F000B0FBF1F2521CC2F30B02042A01D2042014
:100A000022E0B0FBF1F0401CC0F30B001CE0A26838
:100A1000F2B301EBC10303EB0116431EB3FBF6F384
:100A20005B1C43F480431B0549D092B301EBC10228
:100A300002EB0111401EB0FBF1F0401CC0F30B00B3
:100A400040F4804040F400402168CA694CF6FF73CE
:100A50009A431043C861D4E9071001432068026833
:100A600022F0C00211430160D4E903010143206870
:100A7000826848F2FF339A4311438160D4E905014B
:100A800008432168CA6822F0FF021043C86001E0F1
:100A90000EE016E02068016841F001010160256464
:100AA000202084F83D00256384F83E50002070BD6E
:100AB00001EB4106431EB3FBF6F35B1CB3E70120D9
:100AC000C2E701EB4101401EB0FBF1F0401CC0F356
:100AD0000B00B7E7A086010080841E0000093D00DE
:100AE00040420F00704770477047704770470000E2
:100AF0002DE9FF4F83B09A46DDE9119793460446EE
:100B0000DDF84080FFF7ACFD054694F83D00202855
:100B10007FD11923012240492046009501F062F956
:100B2000002876D194F83C00012872D0012084F886
:100B30003C0020680168C90703D1016841F0010148
:100B400001602068016821F400610160212084F8BF
:100B50003D00402084F83E0000262664C4F824802E
:100B6000A4F82A90608D20852C48E062CDE90075BC
:100B700053465A462046049900F0A6FF70B930E06B
:100B80002A463946204601F0ACF958B1206C0428B9
:100B900004D12068016841F400710160012007B0B0
:100BA000BDE8F08F606A216800780861606A401CC7
:100BB0006062218D491E89B22185628D521E628537
:100BC00022685369DB435B070BD469B1007810617D
:100BD000606A401C6062208D401E2085608D401E32
:100BE0006085208D0028CBD12A463946204601F069
:100BF000D3F80028CAD154F83D0B016841F40071C4
:100C00000160202004F81E09E67766770020C6E719
:100C1000FFE70220C3E70000020010000000FFFF12
:100C200010B586B0044614216846FFF79AFB1C49AC
:100C30002068884231D11B480021026842F002023C
:100C40000260006800F0020005904FF440700090D0
:100C50001220CDE90101032003900420049069468D
:100C60001148FFF70DFC0F481030016841F40011E6
:100C700001600068002200F40010059011461F205A
:100C800000F07EF81F2000F06DF8002211462020B1
:100C900000F076F8202000F065F806B010BD0000E6
:100CA0000054004030380240000402407047704752
:100CB0000248816802781144816070471C0000205E
:100CC0000B4810B5016841F400710160016841F4FE
:100CD00080610160016841F480710160032000F0CF
:100CE0006FF80F2000F006F800F024F8002010BD87
:100CF000003C024070B50D4D04464FF47A712878DF
:100D0000B1FBF0F00A490968B1FBF0F000F0FCFA21
:100D100048B9102C07D200222146501E00F030F8AE
:100D200000206C6070BD012070BD00001C00002020
:100D3000280000200A4808B5016841F4804101609C
:100D4000006800F4804000900548001F016841F0F1
:100D500080510160006800F08050009008BD0000E4
:100D600044380240002809DB00F01F0201219140B5
:100D70004009800000F1E020C0F800117047000039
:100D8000F0B40E4B1B680C46C3F30223C3F10705F6
:100D9000042D00D90425191D072901D2002300E0E4
:100DA000DB1E012606FA05F1491E214099409E40AE
:100DB000761E16403143F0BC01F070BA0CED00E035
:100DC000064900F0070208684FF6FF03184040EAA2
:100DD0000220034A10430860704700000CED00E059
:100DE0000000FA052DE9F0470E46050065D0DFF852
:100DF0001481D8F80000F7B200F00700B04207D223
:100E000088F80070D8F8000000F00700B04254D114
:100E100028683D4C810712D5400703D5206840F46F
:100E2000E05020602878000703D5206840F4604037
:100E300020602068A96820F0F0000843206028782E
:100E4000C0072DD0304968680839012812D002281F
:100E500013D0032811D00968890700292DDA2168E9
:100E600021F0030101432160FFF7FAFB814641F2C3
:100E7000883A0EE009688903EFE709688901ECE721
:100E8000FFF7EEFBA0EB0901514502D90320BDE8B5
:100E9000F0872068696800F00C00B0EB810FEFD19B
:100EA000D8F80010404601F00701B14207D9077099
:100EB000006800F00700B04201D00120E7E7287881
:100EC000400705D52068E96820F4E0500843206019
:100ED0002878000706D52068296920F4604040EA98
:100EE000C100206000F028F82168084AC1F303110E
:100EF000515CC8400649086006480068FFF7FAFEE2
:100F00000020C4E7003C0240083802402E320008AE
:100F100028000020200000200448054900680968D6
:100F2000044AC1F38221515CC84070472800002068
:100F3000083802403E320008154810B5006810F02D
:100F40000C02144813D01449042A0FD0082A0ED1D9
:100F50000F4C241F2268236802F03F025B0207D572
:100F60002068C0F38810A0FB010106E0084610BD10
:100F70002168C1F38811A1FB00010023FFF77AF972
:100F80002168C1F30141491C4900B0FBF1F010BDDB
:100F9000083802400024F40040787D012DE9F84F24
:100FA00004006ED02078DFF84C93C007A9F1040547
:100FB0004AD009F104000168C1F38101012908D078
:100FC0000068C0F3810002280AD1D9F8000040026D
:100FD00006D52868800337D560680028E1D033E063
:100FE0006068B0F5803F10D0B0F5A02F286810D011
:100FF00020F480302860286820F480202860606811
:10100000A8B1FFF72DFB06460DE0286840F48030BC
:10101000F4E740F480202860F7E700BFFFF720FBEB
:10102000801B642873D828688003F7D50CE0FFF78D
:1010300017FB064605E000BFFFF712FB801B642884
:10104000F0D828688003F7D42078DFF8AC828007D6
:101050004FF0000A3ED5A748001D016811F00C0FA3
:1010600008D00068C0F3810002280BD1D9F8000035
:10107000400207D42868800716D5E068012800D10F
:1010800012E033E1E068B8B10120C8F80000FFF7D2
:10109000E7FA064605E000BFFFF7E2FA801B0228E8
:1010A000C0D828688007F7D52868216920F0F800A3
:1010B00040EAC10028600DE0C8F800A0FFF7D0FAB0
:1010C000064604E0FFF7CCFA801B02281FD82868E8
:1010D0008007F7D42078000722D5864F87486169BA
:1010E000703771B101210160FFF7BAFA064604E0DA
:1010F000FFF7B6FA801B022809D838688007F7D5B1
:101100000EE0C0F800A0FFF7ABFA064605E082E06B
:10111000FFF7A6FA801B02287DD838688007F7D42D
:101120002078400768D5DFF8CCB100270BF13C0BE5
:10113000DBF80000C0000BD4DBF8001041F0805158
:10114000CBF80010DBF80000012700F08050009081
:101150006B4E3068C00510D4306840F48070306049
:10116000FFF77EFA009005E0FFF77AFA0099401A3F
:10117000022850D83068C005F6D55E4EA0686C369F
:1011800001280FD00528306810D020F00100306011
:10119000306820F004003060A068B8B1FFF760FA52
:1011A00000900FE0306840F00100F4E740F00400E8
:1011B0003060F7E7FFF754FA0099411A41F288309E
:1011C000814266D830688007F4D50EE0FFF748FA10
:1011D000009007E0FFF744FA0099411A41F2883085
:1011E000814256D830688007F4D42FB1DBF8001064
:1011F00021F08051CBF80010A069C8B33D49091D0A
:101200000968C1F3810102294AD00228504607D05B
:10121000C8F8600000E03CE0FFF722FA04463BE03B
:101220004746C8F86000FFF71BFA064605E000BF16
:10123000FFF716FA801B02282BD828688001F7D404
:10124000D4E907010843A16A2E4A490802EB01418B
:10125000626A41EA8211084394F82C1040EA016165
:10126000C9F8001001203866FFF7FAF9044606E0D5
:101270003EE000BFFFF7F4F9001B022809D82868F8
:101280008001F7D534E000BFFFF7EAF9001B022820
:1012900002D90320BDE8F88F28688001F4D427E044
:1012A0000128F7D0D9F80000E26900F480019142EA
:1012B0001CD1226A00F03F01914217D147F6C0715C
:1012C000626A0140B1EB821F10D1A26A4FF0FF3376
:1012D00000F4403103EB5202B1EB024F06D194F817
:1012E0002C1000F07060B0EB016F01D00120D1E74D
:1012F0000020CFE70438024000004742800E4742FA
:10130000007000400000FFFF10B5401EB0F1807F6C
:1013100001D3012010BD4FF0E02460610F21601760
:1013200000F0BCFF0020A06107202061002010BD5C
:10133000FEE700000148FFF79BB900002C000020E9
:101340000148FFF7F2B900002C00002038B5806B8F
:10135000002190F83D202B4B46F2A8141B68B3FBEC
:10136000F4F3C3EBC30303EB830300933BB15B1EB6
:10137000009303681B689B0505D5009BF6E7036C8B
:1013800043F020030364436B03B1D963836B03B160
:10139000D96303681C6824F480641C604185436B36
:1013A00003B11965836B03B1196503681C6824F0E8
:1013B00001041C6090F83D402023602C0BD02824B1
:1013C00034EA02020FD080F83D3080F83E1000BFB2
:1013D000FFF7C3FA38BD80F83D3080F83E10016455
:1013E000FFF744F938BD0268136843F00103136046
:1013F0000268136843F480631360016380F83D4022
:10140000E6E700002800002070B5044690F83D0093
:1014100094F83E10102901D0402906D1222804D189
:1014200021680A6822F400620A60282131EA000279
:101430004FF000054FF0200626D0216849680905C5
:1014400005D4602803D084F83D6084F83E502563BD
:1014500020684168090537D5416821F40061416081
:10146000606B90F835203C49012A11D00165606B12
:10147000FEF7DFFF38B32068016821F00101016049
:1014800084F83D60606B1CE0256384F83D10DFE765
:10149000A06B0165A06BFEF7CCFFA0B1206841698D
:1014A000C943490605D40069616A0870606A401C36
:1014B00060622068016821F00101016084F83D60EC
:1014C000A06B016D884710E094F83D10602910D0A2
:1014D0004169C943490605D40069616A0870606AB8
:1014E000401C60622046FFF738FA206CC1071CD10F
:1014F00015E084F83D6025644169C943490605D477
:101500000069616A0870606A401C60622068016856
:1015100021F0010101602046FFF7A8F8E5E7810707
:1015200003D4410701D4000704D52068416821F4A1
:10153000E061416094F83D00216C49070BD52828F3
:1015400009D10648E062256384F83D6084F83E5086
:101550002046FFF7C7FA70BD4D1300080000FFFFDB
:1015600001684A69D24352050FD46FF480624A6120
:10157000002140F8301F202242738173026942F03B
:10158000040202610173012070470020704710B50A
:10159000C26A438D0168042B06D0438D032B08D00B
:1015A000438D022B1DD012E04A6822F480624A600B
:1015B0000CE04B6823F480634B60042A06D0022AB7
:1015C00004D001680A6822F480620A60016809692F
:1015D000426A1170416A491C4162418D491E418530
:1015E00010BD012A30D0102A2ED0042A30D0022A71
:1015F0002ED00A6842F400720A6001680969426AE2
:101600001170416A491C4162428D521E4285026836
:1016100012690A70416A491C4162418D491E418527
:1016200001684A6822F440724A60202180F83D1027
:1016300090F83E200021402A80F83E100CD0122164
:101640000163FFF750FA10BD0A6822F48062D3E705
:101650000A6842F48062CFE70163FFF746FA10BDE3
:1016600038B590F83D10222914D1418D032912D9A3
:1016700001680969426A1170416A491C4162418DE1
:10168000491E4185418D032904D10068416821F438
:101690008061416038BDC26A022AFBD0012901D0B5
:1016A0000029F7D1274946F2A81300220968B1FBA7
:1016B000F3F101EB8101009101682023009C641E7D
:1016C000009422D00C68A405F8D40C6824F480643B
:1016D0000C6001684C6824F4E0644C60016809699E
:1016E000446A2170416A491C4162418D491E41850D
:1016F00080F83D3090F83E1080F83E2040291DD003
:1017000012210163FFF7EFF938BD046C44F02004A7
:1017100004644C6824F4E0644C6001680969446A1C
:101720002170416A491C4162418D491E418580F802
:101730003D3080F83E20FFF710F938BD0263FFF717
:10174000D4F938BD2800002010B5C26A90F83D10C9
:1017500021290BD1418D51B1416A0268097811618B
:10176000416A491C4162418D491E418510BD2023BB
:101770000021082A13D0202A11D012F5803F0ED064
:101780000268546824F4E06454601122026380F813
:101790003E1080F83D3000BFFFF7A6F910BD02688B
:1017A000546824F4E06454600268146844F40074DB
:1017B0001460016380F83D3090F83E2080F83E10C0
:1017C000402AE9D1FFF792F910BD000010B590F85A
:1017D0003D1090F83E30C26A048DB4B1212903D087
:1017E000402B11D122290FD1418DE1B390F83E1049
:1017F000402942D0416A026809781161416A491C56
:101800004162418D491E418510BD2129E8D1202327
:101810000021082A13D0202A11D012F5803F0ED0C3
:101820000268546824F4E06454601122026380F872
:101830003E1080F83D3000BFFFF756F910BD02683A
:10184000546824F4E06454600268146844F400743A
:101850001460016380F83D3090F83E2080F83E101F
:10186000402AE9D100E002E0FFF740F910BD00682E
:10187000416821F48061416010BDBDE8104000F076
:10188000D3B8000078B590F83E50C26A036B90F868
:101890003D6000240168222E7AD1066D0EB9402DDC
:1018A00076D0056D1DB90569B5F5404F09D0458D58
:1018B00005B3468D384D012E0ED0438D022B3AD004
:1018C0005DE04A698A6900920A6842F480720A609F
:1018D000016D491C016578BDAA4213D10A6822F442
:1018E00080620A6001684A68120503D50A6822F41A
:1018F000806216E04A698A6900920A6842F40072BE
:101900000A6039E0082A10D0202A0ED0122B0AD003
:10191000042A03D0022A01D0102AE7D10A6842F42F
:1019200080620A6024E0012AE0D00A6822F4806222
:101930000A600168DEE7042A21D0022A1FD0102A9B
:101940001DD00B6823F480630B6001680B6843F4BF
:1019500000630B6001684B681B0509D5AA4212D0D1
:10196000012A10D0082A0ED0102A0CD0202A0AD022
:1019700001684A6989690091046578BD08E00B68CF
:1019800043F48063E5E74A6842F480524A60EFE737
:10199000486988690090F0E70000FFFF90F83E106A
:1019A000402910D00169B1F5804F19D0016DA9B35C
:1019B000016D012910D1416C5FF0F10201F4407119
:1019C00042EAD11106E0016D0029416C05D0C9B28F
:1019D00041F0010100680161704701F0FE01F9E783
:1019E00090F83D102129416C09D0C9B241F00101A4
:1019F00002681161416B29B1C96B49B902E001F07C
:101A0000FE01F5E7816B0029E6D0C96B0029E3D020
:101A10000068416841F4006141607047FFE7416C34
:101A2000F02201F44071CBE710B590F83D10026D43
:101A300022B3026D012A2FD0026D022A1DD1222964
:101A40002FD0428D0AB1212933D0428D002A14D1E2
:101A5000212912D101684A6822F4E0624A600168D3
:101A60000A6842F400720A6000210163202280F8B3
:101A70003D2080F83E10FFF739F810BDC16C0129F8
:101A8000816C02D0C1F3072108E00268C9B211617C
:101A9000016D891C016510BD816CC9B202681161BC
:101AA00004E001680A6842F480720A60016D491C12
:101AB000F0E7416A026809781161416A491C416294
:101AC000418D491E418510BD2DE9F843044600684B
:101AD0000D46DDE9089701689846164641F4807185
:101AE00001604B4600224FF001112046009700F0A4
:101AF00079F948B120680068C00502D54FF400703C
:101B000020640320BDE8F883216805F0FE00086129
:101B10003B464A461549204600F098F988B92068A6
:101B20004169806900903A464946204600F0D9F95B
:101B300048B1206C042804D12068016841F4007188
:101B400001600120DEE7F5B2B8F1010F09D021688C
:101B5000300A08613A464946204600F0C2F900289A
:101B6000E7D1206805610020CCE7000002000100F9
:101B700038B50C4690F83D20002128259543026891
:101B80000B4605D051699169009180F83C3038BD11
:101B9000556825F480655560E243540700D501215E
:101BA000120601D5828900E0028B80F83C3092B2A7
:101BB000FEF75DFD38BD00002DE9F04190F83D4095
:101BC000C26A002320261C4F01686FF48065082A32
:101BD00001D0202A01D1282C04D0212C16D04D610F
:101BE000BDE8F081C7624A6822F4E0624A60016899
:101BF0004D6101680A6822F480620A60036380F81C
:101C00003D6080F83E30FEF76DFFE9E7C7622122B4
:101C1000026380F83D6080F83E304A6822F4E0625A
:101C20004A6001684D6101680A6822F480620A60B6
:101C3000FFF73DF8D4E700000000FFFFF8B590F88B
:101C40003D6004460068416821F4E061416020681D
:101C5000002541690091016841F00101016020689F
:101C6000016821F48061016020684168090520D580
:101C7000474F222E48D02A2E46D0616B096849680A
:101C80006185618D19B1216C41F0040121644168C5
:101C900021F400614160606BFEF7DDFB012808D094
:101CA000606B0765606BFEF7C4FB10B1606B016D84
:101CB0008847608D08B320684169C943490708D443
:101CC0000069616A0870606A401C6062608D401E35
:101CD000608520684169C943490608D40069616A82
:101CE0000870606A401C6062608D401E6085608D77
:101CF00018B1206C40F004002064206C00B3204632
:101D0000BDE8F840FFF780BBA16B096849686185B1
:101D1000618D19B1216C41F004012164416821F405
:101D200000614160A06BFEF796FB0128C1D0A06B5B
:101D30000765A06BFEF77DFB0028BAD0A06BB6E765
:101D40002A2E06D12563282084F83D002046FEF780
:101D5000ADFF94F83D10202028290DD0216B2229B9
:101D600001D0222E07D1256384F83D0084F83E502F
:101D70002046FEF79BFFF8BD0649E162256384F823
:101D80003D0084F83E502046FEF7ACFEF8BD000052
:101D90004D1300080000FFFF70B516460D460446BF
:101DA0000DE02046FFF7DCFB08B1012070BD681C88
:101DB00005D0FEF755FC801BA84207D835B1206836
:101DC0004069C0434007ECD4002070BD002044F8B7
:101DD000300F20216173A073216941F0200121613E
:101DE0002073E2E72DE9F0471E4690460D46044673
:101DF000C1F30747DDF8209008E0701C06D0FEF71D
:101E00002FFCA0EB0900B0420FD876B12068012F5B
:101E100018D0806925EA00000004000C14D00021CD
:101E20004145EAD00020BDE8F087002044F8300F9B
:101E300020216173A073216941F020012161207389
:101E40000120F0E74069E5E70121E9E72DE9F047E6
:101E50009A4691460E46044600254FF02008C1F3ED
:101E6000074725E020684069C043400514D4206836
:101E7000016841F40071016021686FF4806048617D
:101E8000256384F83D8084F83E50206C40F00400C7
:101E9000206484F83C501FE0B9F1FF3F08D0FEF702
:101EA000DFFBA0EB0A0149450CD8B9F1000F09D0BE
:101EB0002068012F13D0806926EA00000004000C7E
:101EC0000BD0CFE744F8305F84F80D80A57320690C
:101ED00040F02000206125730120BDE8F0874069B3
:101EE000EAE770B516460D4604460DE02046FFF7BA
:101EF00037FB08B1012070BD681C05D0FEF7B0FBB0
:101F0000801BA84207D835B120684069C04300064D
:101F1000ECD4002070BD002044F8300F2021617304
:101F2000A073216941F0200121612073E2E70000E4
:101F3000114808B5016841F004010160016801F031
:101F400004010091016841F080010160016801F025
:101F500080010091016841F001010160016801F018
:101F600001010091016841F002010160006800F088
:101F70000200009008BD0000303802400D4810B546
:101F80000B4901600C49416000214FF4804281609F
:101F9000C0E9031241618161C1610162FEF7DEFCAB
:101FA000002803D0BDE81040FEF741BA10BD000084
:101FB000005400402C00002040420F00FEE7FEE7E6
:101FC00070B5002404F1B000C0B200F0D1F80020D8
:101FD00000F0CEF8102000F0CBF80025002000F033
:101FE000D9F86D1CEDB2802DF8D3641CE4B2082C36
:101FF000E8D370BD2DE9F047984617468246002683
:102000000C46DDF8209010E02146504600F019F80B
:10201000554606E019F80600761C00F0BBF86D1C6A
:10202000EDB2BD42F6D3641CE4B24445ECD3BDE846
:10203000F08710B5C820FEF711FABDE8104000F097
:1020400013B910B50446B031C8B200F091F81020B1
:1020500040EA141000F08CF804F00F00BDE81040C6
:1020600000F086B82DE9F04115460E460746FFF709
:10207000E8FF0E48002400EB8515285D00F08AF883
:10208000641CE4B2102CF8D3761CF1B23846FFF78A
:10209000D8FF0024281990F8200000F07BF8641C79
:1020A000E4B2102CF6D3BDE8F08100006E2B0008DE
:1020B0002DE9F041203A00240D468046D6B27F2813
:1020C00003D900208D1C8046EDB2102B29460FD07D
:1020D000FFF7B7FF164906EB460001EB4005285D08
:1020E00000F058F8641CE4B2062CF8D3BDE8F08187
:1020F000FFF7A7FF0F4F00BF04EB0610385C00F09E
:1021000049F8641CE4B2082CF6D36D1CE9B24046D1
:10211000FFF797FF5FF0000404EB06103844007AE5
:1021200000F038F8641CE4B2082CF5D3DEE70000B8
:10213000562300087E2500082DE9F04198461746F1
:102140000E46044600250DE0434631462046FFF783
:10215000AFFF0834E4B2782C02D90024B61CF6B2E2
:102160006D1CEDB27A5D002AEED1BDE8F081000071
:1021700001B584B001214FF4807204A88DE80700F6
:102180000B46002278210248FEF7B2FC05B000BDE4
:102190002C00002001B584B001214FF4807204A806
:1021A0008DE807000B46402278210248FEF7A0FC8C
:1021B00005B000BD2C00002070477047FEF778BDC9
:1021C00030B593B030216846FEF7CBF814210CA847
:1021D000FEF7C7F81D480025016841F080510160F5
:1021E000006800F0805011901948016821F44041C6
:1021F00041F4004101600068022400F44040119065
:1022000001200090000401908001CDE906401920D2
:102210000890A820CDE9090404200B906846FEF739
:10222000BDFE08B172B6FEE70CA90F2081E83100AF
:102230004FF48050CDE90F0502210CA8FEF7D2FD26
:10224000002801D072B6FEE713B030BD403802401E
:10225000007000400248016841F47001016070475D
:1022600088ED00E0FEE70000FEB50024094F4FF4C2
:10227000807501263819CDE9000601230022782156
:1022800002950548FEF734FC641CE4B21B2CF1D324
:10229000FEBD0000000000202C0000200907090EF0
:1022A000002804DB00F1E02080F80014704700F003
:1022B0000F0000F1E02080F8141D704708B5FEF70C
:1022C000FFFCFFF77DFFFFF733FEFFF757FEFFF739
:1022D000B0FEFFF775FE002211461046FFF7C2FE62
:1022E000012200210F20FFF7BDFE022200211E2047
:1022F000FFF7B8FE4FF4FA642046FEF7AFF8FFF799
:102300005FFE0D4800210090082380220846FFF759
:1023100071FE2046FEF7A2F8FFF752FE00210C23C3
:1023200006A20846FFF708FF102304A2052100209B
:10233000FFF702FFF2E700002E2E000868656C6CC4
:102340006F20776F726C6421000000004FF04070C6
:10235000E1EE100A70470000000000000000002FAE
:10236000000000000700070000147F147F14002401
:102370002A7F2A120062640813230036495522502E
:1023800000000503000000001C2241000000412263
:102390001C000014083E08140008083E080800004D
:1023A00000A0600000080808080800006060000045
:1023B000002010080402003E5149453E0000427FC3
:1023C0004000004261514946002141454B3100180F
:1023D00014127F10002745454539003C4A494930D1
:1023E000000171090503003649494936000649498B
:1023F000291E000036360000000056360000000896
:102400001422410000141414141400004122140872
:1024100000020151090600324959513E007C121157
:10242000127C007F49494936003E41414122007FEC
:102430004141221C007F49494941007F09090901A6
:10244000003E4149497A007F0808087F0000417F2B
:102450004100002040413F01007F08142241007FDD
:1024600040404040007F020C027F007F0408107F44
:10247000003E4141413E007F09090906003E4151AD
:10248000215E007F0919294600464949493100016A
:10249000017F0101003F4040403F001F2040201FBE
:1024A000003F4038403F0063140814630007087081
:1024B000080700615149454300007F414100005534
:1024C0002A552A55000041417F0000040201020400
:1024D00000404040404000000102040000205454ED
:1024E0005478007F4844443800384444442000383D
:1024F0004444487F00385454541800087E090102AF
:102500000018A4A4A47C007F080404780000447D83
:102510004000004080847D00007F102844000000BF
:10252000417F4000007C04180478007C0804047893
:1025300000384444443800FC24242418001824247F
:1025400018FC007C0804040800485454542000047B
:102550003F444020003C4040207C001C2040201C88
:10256000003C4030403C004428102844001CA0A0FF
:10257000A07C004464544C4414141414141400003B
:10258000000000000000000000000000000000004B
:1025900000F80000000000000033300000000010D0
:1025A0000C06100C0600000000000000000040C0F7
:1025B0007840C0784000043F04043F0404000070E9
:1025C00088FC08300000001820FF211E0000F008E1
:1025D000F000E018000000211C031E211E0000F086
:1025E0000888700000001E212324192721101016CE
:1025F0000E000000000000000000000000000000CD
:1026000000E018040200000000071820400000024B
:102610000418E000000000402018070000004040BF
:1026200080F0804040000202010F01020200000021
:1026300000F0000000000101011F01010100000085
:1026400000000000000080B07000000000000000EA
:102650000000000000000001010101010101000073
:10266000000000000000003030000000000000000A
:10267000000080601804006018060100000000E0FF
:1026800010080810E000000F102020100F000010AC
:1026900010F8000000000020203F20200000007003
:1026A00008080888700000302824222130000030FB
:1026B0000888884830000018202020110E000000F3
:1026C000C02010F8000000070424243F240000F874
:1026D0000888880808000019212020110E0000E059
:1026E000108888180000000F112020110E000038FB
:1026F0000808C83808000000003F00000000007013
:10270000880808887000001C222121221C0000E09B
:1027100010080810E0000000312222110F00000014
:1027200000C0C000000000000030300000000000C9
:102730000080000000000000806000000000000039
:1027400080402010080000010204081020004040D2
:102750004040404040000404040404040400000815
:1027600010204080000000201008040201000070CA
:1027700048080808F0000000003036010000C030B2
:10278000C828E810E0000718272423140B000000D5
:10279000C038E0000000203C23020227382008F85F
:1027A000888888700000203F202020110E00C03053
:1027B000080808083800071820202010080008F82A
:1027C00008080810E000203F202020100F0008F823
:1027D0008888E8081000203F20202320180008F8EF
:1027E0008888E8081000203F200003000000C03067
:1027F00008080838000007182020221E020008F8E8
:1028000008000008F808203F210101213F200008AE
:1028100008F8080800000020203F202000000000E9
:102820000808F8080800C08080807F00000008F8D1
:1028300088C028180800203F20012638200008F80A
:10284000080000000000203F20202020300008F871
:10285000F800F8F80800203F003F003F200008F88B
:1028600030C00008F808203F200007183F00E010A3
:1028700008080810E0000F10202020100F0008F8B2
:1028800008080808F000203F210101010000E010C5
:1028900008080810E0000F18242438504F0008F8EA
:1028A000888888887000203F2000030C302000704A
:1028B0008808080838000038202121221C00180848
:1028C00008F8080818000000203F2000000008F861
:1028D00008000008F808001F202020201F000878AA
:1028E000880000C83808000007380E010000F8080A
:1028F00000F80008F800033C0700073C0300081834
:1029000068808068180820302C03032C3020083899
:10291000C800C83808000000203F20000000100850
:102920000808C83808002038262120201800000098
:1029300000FE020202000000007F40404000000C48
:1029400030C000000000000000010638C000000296
:102950000202FE000000004040407F000000000036
:102960000402020204000000000000000000000059
:102970000000000000008080808080808080000255
:102980000204000000000000000000000000000041
:102990008080808000000019242222223F2008F835
:1029A000008080000000003F112020110E00000078
:1029B000008080800000000E112020201100000007
:1029C00000808088F800000E112020103F200000B9
:1029D000808080800000001F2222222213000080BD
:1029E00080F0888888180020203F20200000000008
:1029F000808080808000006B94949493600008F83D
:102A0000008080800000203F210000203F200080C7
:102A10009898000000000020203F202000000000C7
:102A200000809898000000C08080807F000008F837
:102A3000000080808000203F24022D30200000080C
:102A400008F8000000000020203F202000008080C7
:102A5000808080808000203F20003F20003F8080D9
:102A6000008080800000203F210000203F200000E7
:102A7000808080800000001F202020201F00808098
:102A800000808000000080FFA12020110E000000C7
:102A9000008080808000000E112020A0FF808080B8
:102AA00080008080800020203F2120000100000065
:102AB000808080808000003324242424190000803A
:102AC00080E0808000000000001F20200000808047
:102AD000000000808000001F202020103F20808008
:102AE00080000080808000010E3008060100808098
:102AF0000080008080800F300C030C300F000080BD
:102B00008000808080000020312E0E3120008080E7
:102B100080000080808080818E7018060100008017
:102B20008080808080000021302C22213000000035
:102B30000000807C020200000000003F40400000D6
:102B40000000FF00000000000000FF000000000285
:102B5000027C800000000040403F000000000006B2
:102B6000010102020404000000000000000004A4AF
:102B7000A4A4BFA4A4A40400201008866000000040
:102B8000000000000000000000000000000040C73E
:102B90005464442434272080844221100C00000017
:102BA000000000000000000000000000000000E045
:102BB00000FF10A2864A52A2524A8680800000007E
:102BC0000000000000000000000000000000010004
:102BD00000FF0010121212FF12121210000000006B
:102BE000000000000000000000000000000002FAE9
:102BF0008282FE8088884F58245484E400000000BC
:102C000000000000000000000000000000000818A4
:102C1000488444BF42320E02023E4242720000002B
:102C20000000000000000000000000000000101084
:102C3000D0FF9010404444447F444444400000008E
:102C4000000000000000000000000000000004037D
:102C500000FF0003404444447F44444440000000DB
:102C60000000000000000000000000000000101044
:102C7000D0FF9010001010D0FFD0101010000000F6
:102C8000000000000000000000000000000004033D
:102C900000FF001108040300FF0003040800000007
:102CA0000000000000000000000000000000000024
:102CB000F888888888FF88888888F80000000000E5
:102CC0000000000000000000000000000000000004
:102CD0001F080808087F888888889F80F000000007
:102CE00000000000000000000000000000008082E2
:102CF0008282828282E2A2928A86828080000000A2
:102D000000000000000000000000000000000000C3
:102D100000000040807F0000000000000000000074
:102D2000000000000000000000000000000024245B
:102D3000A4FEA3220022CC0000FF0000000000003F
:102D40000000000000000000000000000000080675
:102D500001FF00010404040404FF02020200000059
:102D60000000000000000000000000000000101043
:102D700010FF109008888888FF8888880800000065
:102D800000000000000000000000000000000444FB
:102D9000827F01808040432C102846818000000003
:102DA00000000000000000000000000000002020E3
:102DB0002020202020FF2020202020202000000094
:102DC0000000000000000000000000000000808003
:102DD0004020100C0300030C1020408080000000F5
:102DE0000000000000000000000000000000403073
:102DF0001196909091969090981413503000000086
:102E000000000000000000000000000000000404BA
:102E100004040444847E0605040404040400000041
:102E200000000000000000000000000000000000A2
:102E30000000000020A0A0F820202000000000C01A
:102E40000000000000000000000000F00000000092
:102E500080A0202020E0C000000000000000000052
:102E6000C0406020E00000000000808080C0E0B032
:102E700080800000000000000000000080F0F0E012
:102E800000000090D07000000000E0B090B0E000C2
:102E9000001010F0C000001018089890F00000001A
:102EA0000000000000000000000000000000000022
:102EB0000000000080B82425353D280000009E83D6
:102EC000C06020000000003C000000FF00809E82E7
:102ED0009293FBB3A705040000000000000000006F
:102EE000009FB0A0909FD05010F0001098DD577652
:102EF00037F4340000C000000000E0FC7F1F070131
:102F000000008181C18382020200E0000000000015
:102F10000303070504C440404043C302020202C049
:102F2000404040C000000000000000000000000021
:102F3000000000040C090F0E0E0A0B080808090C0B
:102F400084E6F2F0F0E0C0000000000F0000000096
:102F500000000F0000000000000000000000000062
:102F6000000100000008080C070100030100000038
:102F7000000302030101000000070F010000000030
:102F80000000030202060700000C07000000000C0E
:102F90000C00000001070C08080C0700000C1E13B1
:102FA000161E1A0300000000000000000000008050
:102FB000C0C0C0C0C0C0C0C0C0C0C0C0E0F8FCFF3E
:102FC000FF3F1F071F3FFFFFFEF8E0C0C0C0C0C0AB
:102FD000C0C0C0C0C0C0C080000000000000000031
:102FE00000000000000000000000000000000000E1
:102FF00000000000000000000000000000000000D1
:1030000000000000000000000000000000000000C0
:1030100000000000000000000000000000000000B0
:10302000000000000000000000000000000000039D
:10303000071F7FFFFFFFF7E7870707070707030162
:10304000000000000000000103070707070787C70B
:10305000F7FFFFFF7F1F0F0300000000008080804C
:103060008000000000000000000000000000800060
:1030700000000000000080808000000000000000D0
:103080000000000000000000000000000000000040
:1030900000000000000000000000008080800000B0
:1030A0000000000000000000000000000000000020
:1030B0000080E0F1FFFFFF7F1F060000000000001E
:1030C00000000000000000000000000000061F3F9C
:1030D000FFFFFFF9E0800000EEEEEEEEEEFFFFFFF7
:1030E000FFEEEEEEEEEE0E3078783C3E1E8F87C798
:1030F000820000F0E000FFFFFF7870370717BFFF86
:10310000FFF7E7E7E7F7FFFF3F1F0F000000F7F7C4
:10311000F70707FFFFFF00181C1C1D1FFFFFFEEE37
:10312000EEEEFE7EF7A78600000000000000001C07
:103130003E3F3F3F3F3F3E3E3E3E3E3EFEFEFCF8B2
:10314000F0C0800000C0E0F8FCFEFE3E3E3E3E3E89
:103150003E3F3F3F3F3F3F1C00FEFEFEEEEEEEEEE9
:10316000EEEEFEFEFEFE0010787C3C1E1F8FC7C3F5
:10317000810006070300FFFFFF0001777777777371
:1031800073FFFDFDFF7373737777770300809F9F55
:103190009F9C9C1FFFFFFC02EEEFE7E7E7E3E3E7FE
:1031A000EFEFEEEEEFEFE3000000000000000000A4
:1031B0000000000000000000000000000001070FF8
:1031C0003F7FFFFEFF7F3F0F070100000000000070
:1031D00000000000000000707070737F7F7E383840
:1031E0003E3F3F3B383870F8787C3E1F1F0F070387
:1031F000010000000000FFFFFF000E0E0E0E0E0E7D
:103200000EFFFFFFFF0E0E0E0E0E0E0E00030373D9
:10321000E3E3E3F0FF7F3F70F0783F3F0F010000F2
:103220003F7F7F70787E3C040000000000000000BB
:103230000000000000000102030406070809000066
:1032400000000102030400006832000800000020B2
:103250002C000000D0010008943200082C0000204F
:10326000B4060000EC010008AE001040B081FFA1E0
:10327000A6A83FC8D300D580D805D9F1DA12D83036
:103280008D14AF00010000001000000000000000DD
:043290000024F40022
:040000050800019559
:00000001FF
